{"abi":[{"type":"constructor","inputs":[],"stateMutability":"nonpayable"},{"type":"function","name":"agentes","inputs":[{"name":"","type":"uint256","internalType":"uint256"}],"outputs":[{"name":"nome","type":"string","internalType":"string"},{"name":"modeloIA","type":"string","internalType":"string"},{"name":"ipfsImagem","type":"string","internalType":"string"},{"name":"ipfsPromptBase","type":"string","internalType":"string"},{"name":"proprietario","type":"address","internalType":"address"},{"name":"nivelTreinamento","type":"uint256","internalType":"uint256"},{"name":"ultimoTreinamento","type":"uint256","internalType":"uint256"}],"stateMutability":"view"},{"type":"function","name":"approve","inputs":[{"name":"to","type":"address","internalType":"address"},{"name":"tokenId","type":"uint256","internalType":"uint256"}],"outputs":[],"stateMutability":"nonpayable"},{"type":"function","name":"balanceOf","inputs":[{"name":"owner","type":"address","internalType":"address"}],"outputs":[{"name":"","type":"uint256","internalType":"uint256"}],"stateMutability":"view"},{"type":"function","name":"compartilharAgente","inputs":[{"name":"tokenId","type":"uint256","internalType":"uint256"},{"name":"usuario","type":"address","internalType":"address"},{"name":"duracaoSegundos","type":"uint256","internalType":"uint256"}],"outputs":[],"stateMutability":"nonpayable"},{"type":"function","name":"criarAgente","inputs":[{"name":"nome","type":"string","internalType":"string"},{"name":"modeloIA","type":"string","internalType":"string"},{"name":"ipfsImagem","type":"string","internalType":"string"},{"name":"ipfsPromptBase","type":"string","internalType":"string"}],"outputs":[{"name":"","type":"uint256","internalType":"uint256"}],"stateMutability":"nonpayable"},{"type":"function","name":"getApproved","inputs":[{"name":"tokenId","type":"uint256","internalType":"uint256"}],"outputs":[{"name":"","type":"address","internalType":"address"}],"stateMutability":"view"},{"type":"function","name":"getInfoAgente","inputs":[{"name":"tokenId","type":"uint256","internalType":"uint256"}],"outputs":[{"name":"","type":"tuple","internalType":"struct AgenteIA.Agente","components":[{"name":"nome","type":"string","internalType":"string"},{"name":"modeloIA","type":"string","internalType":"string"},{"name":"ipfsImagem","type":"string","internalType":"string"},{"name":"ipfsPromptBase","type":"string","internalType":"string"},{"name":"proprietario","type":"address","internalType":"address"},{"name":"nivelTreinamento","type":"uint256","internalType":"uint256"},{"name":"ultimoTreinamento","type":"uint256","internalType":"uint256"}]}],"stateMutability":"view"},{"type":"function","name":"historicoTreinadores","inputs":[{"name":"","type":"uint256","internalType":"uint256"},{"name":"","type":"uint256","internalType":"uint256"}],"outputs":[{"name":"","type":"address","internalType":"address"}],"stateMutability":"view"},{"type":"function","name":"isApprovedForAll","inputs":[{"name":"owner","type":"address","internalType":"address"},{"name":"operator","type":"address","internalType":"address"}],"outputs":[{"name":"","type":"bool","internalType":"bool"}],"stateMutability":"view"},{"type":"function","name":"name","inputs":[],"outputs":[{"name":"","type":"string","internalType":"string"}],"stateMutability":"view"},{"type":"function","name":"owner","inputs":[],"outputs":[{"name":"","type":"address","internalType":"address"}],"stateMutability":"view"},{"type":"function","name":"ownerOf","inputs":[{"name":"tokenId","type":"uint256","internalType":"uint256"}],"outputs":[{"name":"","type":"address","internalType":"address"}],"stateMutability":"view"},{"type":"function","name":"permissoesCompartilhamento","inputs":[{"name":"","type":"uint256","internalType":"uint256"},{"name":"","type":"address","internalType":"address"}],"outputs":[{"name":"","type":"uint256","internalType":"uint256"}],"stateMutability":"view"},{"type":"function","name":"podeUsarAgente","inputs":[{"name":"tokenId","type":"uint256","internalType":"uint256"},{"name":"usuario","type":"address","internalType":"address"}],"outputs":[{"name":"","type":"bool","internalType":"bool"}],"stateMutability":"view"},{"type":"function","name":"renounceOwnership","inputs":[],"outputs":[],"stateMutability":"nonpayable"},{"type":"function","name":"revogarCompartilhamento","inputs":[{"name":"tokenId","type":"uint256","internalType":"uint256"},{"name":"usuario","type":"address","internalType":"address"}],"outputs":[],"stateMutability":"nonpayable"},{"type":"function","name":"safeTransferFrom","inputs":[{"name":"from","type":"address","internalType":"address"},{"name":"to","type":"address","internalType":"address"},{"name":"tokenId","type":"uint256","internalType":"uint256"}],"outputs":[],"stateMutability":"nonpayable"},{"type":"function","name":"safeTransferFrom","inputs":[{"name":"from","type":"address","internalType":"address"},{"name":"to","type":"address","internalType":"address"},{"name":"tokenId","type":"uint256","internalType":"uint256"},{"name":"data","type":"bytes","internalType":"bytes"}],"outputs":[],"stateMutability":"nonpayable"},{"type":"function","name":"setApprovalForAll","inputs":[{"name":"operator","type":"address","internalType":"address"},{"name":"approved","type":"bool","internalType":"bool"}],"outputs":[],"stateMutability":"nonpayable"},{"type":"function","name":"supportsInterface","inputs":[{"name":"interfaceId","type":"bytes4","internalType":"bytes4"}],"outputs":[{"name":"","type":"bool","internalType":"bool"}],"stateMutability":"view"},{"type":"function","name":"symbol","inputs":[],"outputs":[{"name":"","type":"string","internalType":"string"}],"stateMutability":"view"},{"type":"function","name":"tokenURI","inputs":[{"name":"tokenId","type":"uint256","internalType":"uint256"}],"outputs":[{"name":"","type":"string","internalType":"string"}],"stateMutability":"view"},{"type":"function","name":"transferFrom","inputs":[{"name":"from","type":"address","internalType":"address"},{"name":"to","type":"address","internalType":"address"},{"name":"tokenId","type":"uint256","internalType":"uint256"}],"outputs":[],"stateMutability":"nonpayable"},{"type":"function","name":"transferOwnership","inputs":[{"name":"newOwner","type":"address","internalType":"address"}],"outputs":[],"stateMutability":"nonpayable"},{"type":"function","name":"treinarAgente","inputs":[{"name":"tokenId","type":"uint256","internalType":"uint256"},{"name":"novoPromptHash","type":"string","internalType":"string"}],"outputs":[],"stateMutability":"nonpayable"},{"type":"event","name":"AgenteCompartilhado","inputs":[{"name":"tokenId","type":"uint256","indexed":true,"internalType":"uint256"},{"name":"usuario","type":"address","indexed":false,"internalType":"address"},{"name":"expiracao","type":"uint256","indexed":false,"internalType":"uint256"}],"anonymous":false},{"type":"event","name":"AgenteCriado","inputs":[{"name":"tokenId","type":"uint256","indexed":true,"internalType":"uint256"},{"name":"nome","type":"string","indexed":false,"internalType":"string"},{"name":"criador","type":"address","indexed":false,"internalType":"address"}],"anonymous":false},{"type":"event","name":"AgenteTreinado","inputs":[{"name":"tokenId","type":"uint256","indexed":true,"internalType":"uint256"},{"name":"treinador","type":"address","indexed":false,"internalType":"address"},{"name":"novoPromptHash","type":"string","indexed":false,"internalType":"string"},{"name":"nivel","type":"uint256","indexed":false,"internalType":"uint256"}],"anonymous":false},{"type":"event","name":"Approval","inputs":[{"name":"owner","type":"address","indexed":true,"internalType":"address"},{"name":"approved","type":"address","indexed":true,"internalType":"address"},{"name":"tokenId","type":"uint256","indexed":true,"internalType":"uint256"}],"anonymous":false},{"type":"event","name":"ApprovalForAll","inputs":[{"name":"owner","type":"address","indexed":true,"internalType":"address"},{"name":"operator","type":"address","indexed":true,"internalType":"address"},{"name":"approved","type":"bool","indexed":false,"internalType":"bool"}],"anonymous":false},{"type":"event","name":"BatchMetadataUpdate","inputs":[{"name":"_fromTokenId","type":"uint256","indexed":false,"internalType":"uint256"},{"name":"_toTokenId","type":"uint256","indexed":false,"internalType":"uint256"}],"anonymous":false},{"type":"event","name":"MetadataUpdate","inputs":[{"name":"_tokenId","type":"uint256","indexed":false,"internalType":"uint256"}],"anonymous":false},{"type":"event","name":"OwnershipTransferred","inputs":[{"name":"previousOwner","type":"address","indexed":true,"internalType":"address"},{"name":"newOwner","type":"address","indexed":true,"internalType":"address"}],"anonymous":false},{"type":"event","name":"Transfer","inputs":[{"name":"from","type":"address","indexed":true,"internalType":"address"},{"name":"to","type":"address","indexed":true,"internalType":"address"},{"name":"tokenId","type":"uint256","indexed":true,"internalType":"uint256"}],"anonymous":false},{"type":"error","name":"ERC721IncorrectOwner","inputs":[{"name":"sender","type":"address","internalType":"address"},{"name":"tokenId","type":"uint256","internalType":"uint256"},{"name":"owner","type":"address","internalType":"address"}]},{"type":"error","name":"ERC721InsufficientApproval","inputs":[{"name":"operator","type":"address","internalType":"address"},{"name":"tokenId","type":"uint256","internalType":"uint256"}]},{"type":"error","name":"ERC721InvalidApprover","inputs":[{"name":"approver","type":"address","internalType":"address"}]},{"type":"error","name":"ERC721InvalidOperator","inputs":[{"name":"operator","type":"address","internalType":"address"}]},{"type":"error","name":"ERC721InvalidOwner","inputs":[{"name":"owner","type":"address","internalType":"address"}]},{"type":"error","name":"ERC721InvalidReceiver","inputs":[{"name":"receiver","type":"address","internalType":"address"}]},{"type":"error","name":"ERC721InvalidSender","inputs":[{"name":"sender","type":"address","internalType":"address"}]},{"type":"error","name":"ERC721NonexistentToken","inputs":[{"name":"tokenId","type":"uint256","internalType":"uint256"}]},{"type":"error","name":"OwnableInvalidOwner","inputs":[{"name":"owner","type":"address","internalType":"address"}]},{"type":"error","name":"OwnableUnauthorizedAccount","inputs":[{"name":"account","type":"address","internalType":"address"}]}],"bytecode":{"object":"0x608060405234801562000010575f80fd5b50336040518060400160405280600881526020017f4167656e746549410000000000000000000000000000000000000000000000008152506040518060400160405280600381526020017f4149410000000000000000000000000000000000000000000000000000000000815250815f90816200008e919062000455565b508060019081620000a0919062000455565b5050505f73ffffffffffffffffffffffffffffffffffffffff168173ffffffffffffffffffffffffffffffffffffffff160362000116575f6040517f1e4fbdf70000000000000000000000000000000000000000000000000000000081526004016200010d91906200057c565b60405180910390fd5b62000127816200012e60201b60201c565b5062000597565b5f60075f9054906101000a900473ffffffffffffffffffffffffffffffffffffffff1690508160075f6101000a81548173ffffffffffffffffffffffffffffffffffffffff021916908373ffffffffffffffffffffffffffffffffffffffff1602179055508173ffffffffffffffffffffffffffffffffffffffff168173ffffffffffffffffffffffffffffffffffffffff167f8be0079c531659141344cd1fd0a4f28419497f9722a3daafe3b4186f6b6457e060405160405180910390a35050565b5f81519050919050565b7f4e487b71000000000000000000000000000000000000000000000000000000005f52604160045260245ffd5b7f4e487b71000000000000000000000000000000000000000000000000000000005f52602260045260245ffd5b5f60028204905060018216806200026d57607f821691505b60208210810362000283576200028262000228565b5b50919050565b5f819050815f5260205f209050919050565b5f6020601f8301049050919050565b5f82821b905092915050565b5f60088302620002e77fffffffffffffffffffffffffffffffffffffffffffffffffffffffffffffffff82620002aa565b620002f38683620002aa565b95508019841693508086168417925050509392505050565b5f819050919050565b5f819050919050565b5f6200033d6200033762000331846200030b565b62000314565b6200030b565b9050919050565b5f819050919050565b62000358836200031d565b62000370620003678262000344565b848454620002b6565b825550505050565b5f90565b6200038662000378565b620003938184846200034d565b505050565b5b81811015620003ba57620003ae5f826200037c565b60018101905062000399565b5050565b601f8211156200040957620003d38162000289565b620003de846200029b565b81016020851015620003ee578190505b62000406620003fd856200029b565b83018262000398565b50505b505050565b5f82821c905092915050565b5f6200042b5f19846008026200040e565b1980831691505092915050565b5f6200044583836200041a565b9150826002028217905092915050565b6200046082620001f1565b67ffffffffffffffff8111156200047c576200047b620001fb565b5b62000488825462000255565b62000495828285620003be565b5f60209050601f831160018114620004cb575f8415620004b6578287015190505b620004c2858262000438565b86555062000531565b601f198416620004db8662000289565b5f5b828110156200050457848901518255600182019150602085019450602081019050620004dd565b8683101562000524578489015162000520601f8916826200041a565b8355505b6001600288020188555050505b505050505050565b5f73ffffffffffffffffffffffffffffffffffffffff82169050919050565b5f620005648262000539565b9050919050565b620005768162000558565b82525050565b5f602082019050620005915f8301846200056b565b92915050565b61356680620005a55f395ff3fe608060405234801561000f575f80fd5b5060043610610171575f3560e01c806395d89b41116100dc578063c87b56dd11610095578063d2539d151161006f578063d2539d1514610469578063df01882a14610499578063e985e9c5146104cf578063f2fde38b146104ff57610171565b8063c87b56dd146103d9578063cb6af1b814610409578063cd5a7a651461043957610171565b806395d89b4114610307578063a22cb46514610325578063a764833314610341578063b88d4fde1461035d578063c2c047b314610379578063c3f27ca5146103a957610171565b806342842e0e1161012e57806342842e0e14610247578063492fe59e146102635780636352211e1461027f57806370a08231146102af578063715018a6146102df5780638da5cb5b146102e957610171565b806301ffc9a71461017557806306fdde03146101a5578063081812fc146101c3578063095ea7b3146101f357806323b872dd1461020f578063324b53151461022b575b5f80fd5b61018f600480360381019061018a9190612577565b61051b565b60405161019c91906125bc565b60405180910390f35b6101ad61057b565b6040516101ba919061265f565b60405180910390f35b6101dd60048036038101906101d891906126b2565b61060a565b6040516101ea919061271c565b60405180910390f35b61020d6004803603810190610208919061275f565b610625565b005b6102296004803603810190610224919061279d565b61063b565b005b610245600480360381019061024091906127ed565b61073a565b005b610261600480360381019061025c919061279d565b610856565b005b61027d6004803603810190610278919061283d565b610875565b005b610299600480360381019061029491906126b2565b61093e565b6040516102a6919061271c565b60405180910390f35b6102c960048036038101906102c4919061287b565b61094f565b6040516102d691906128b5565b60405180910390f35b6102e7610a05565b005b6102f1610a18565b6040516102fe919061271c565b60405180910390f35b61030f610a40565b60405161031c919061265f565b60405180910390f35b61033f600480360381019061033a91906128f8565b610ad0565b005b61035b60048036038101906103569190612a62565b610ae6565b005b61037760048036038101906103729190612b5a565b610cf5565b005b610393600480360381019061038e9190612bda565b610d1a565b6040516103a0919061271c565b60405180910390f35b6103c360048036038101906103be919061283d565b610d62565b6040516103d091906125bc565b60405180910390f35b6103f360048036038101906103ee91906126b2565b610dfd565b604051610400919061265f565b60405180910390f35b610423600480360381019061041e919061283d565b610eab565b60405161043091906128b5565b60405180910390f35b610453600480360381019061044e91906126b2565b610ecb565b6040516104609190612d2c565b60405180910390f35b610483600480360381019061047e9190612d4c565b6111a8565b60405161049091906128b5565b60405180910390f35b6104b360048036038101906104ae91906126b2565b611336565b6040516104c69796959493929190612e20565b60405180910390f35b6104e960048036038101906104e49190612ea9565b6115ab565b6040516104f691906125bc565b60405180910390f35b6105196004803603810190610514919061287b565b611639565b005b5f634906490660e01b7bffffffffffffffffffffffffffffffffffffffffffffffffffffffff1916827bffffffffffffffffffffffffffffffffffffffffffffffffffffffff191614806105745750610573826116bd565b5b9050919050565b60605f805461058990612f14565b80601f01602080910402602001604051908101604052809291908181526020018280546105b590612f14565b80156106005780601f106105d757610100808354040283529160200191610600565b820191905f5260205f20905b8154815290600101906020018083116105e357829003601f168201915b5050505050905090565b5f6106148261179e565b5061061e82611824565b9050919050565b610637828261063261185d565b611864565b5050565b5f73ffffffffffffffffffffffffffffffffffffffff168273ffffffffffffffffffffffffffffffffffffffff16036106ab575f6040517f64a0ae920000000000000000000000000000000000000000000000000000000081526004016106a2919061271c565b60405180910390fd5b5f6106be83836106b961185d565b611876565b90508373ffffffffffffffffffffffffffffffffffffffff168173ffffffffffffffffffffffffffffffffffffffff1614610734578382826040517f64283d7b00000000000000000000000000000000000000000000000000000000815260040161072b93929190612f44565b60405180910390fd5b50505050565b3373ffffffffffffffffffffffffffffffffffffffff1661075a8461093e565b73ffffffffffffffffffffffffffffffffffffffff16146107b0576040517f08c379a00000000000000000000000000000000000000000000000000000000081526004016107a790612fc3565b60405180910390fd5b80426107bc919061300e565b600b5f8581526020019081526020015f205f8473ffffffffffffffffffffffffffffffffffffffff1673ffffffffffffffffffffffffffffffffffffffff1681526020019081526020015f2081905550827fbfefe8426513b56fb849555b03527c1764a447a6279d2b1eda083c5191b3268383834261083b919061300e565b604051610849929190613041565b60405180910390a2505050565b61087083838360405180602001604052805f815250610cf5565b505050565b3373ffffffffffffffffffffffffffffffffffffffff166108958361093e565b73ffffffffffffffffffffffffffffffffffffffff16146108eb576040517f08c379a00000000000000000000000000000000000000000000000000000000081526004016108e2906130b2565b60405180910390fd5b600b5f8381526020019081526020015f205f8273ffffffffffffffffffffffffffffffffffffffff1673ffffffffffffffffffffffffffffffffffffffff1681526020019081526020015f205f90555050565b5f6109488261179e565b9050919050565b5f8073ffffffffffffffffffffffffffffffffffffffff168273ffffffffffffffffffffffffffffffffffffffff16036109c0575f6040517f89c62b640000000000000000000000000000000000000000000000000000000081526004016109b7919061271c565b60405180910390fd5b60035f8373ffffffffffffffffffffffffffffffffffffffff1673ffffffffffffffffffffffffffffffffffffffff1681526020019081526020015f20549050919050565b610a0d611a81565b610a165f611b08565b565b5f60075f9054906101000a900473ffffffffffffffffffffffffffffffffffffffff16905090565b606060018054610a4f90612f14565b80601f0160208091040260200160405190810160405280929190818152602001828054610a7b90612f14565b8015610ac65780601f10610a9d57610100808354040283529160200191610ac6565b820191905f5260205f20905b815481529060010190602001808311610aa957829003601f168201915b5050505050905090565b610ae2610adb61185d565b8383611bcb565b5050565b5f610af08361093e565b90503373ffffffffffffffffffffffffffffffffffffffff168173ffffffffffffffffffffffffffffffffffffffff161480610b77575042600b5f8581526020019081526020015f205f3373ffffffffffffffffffffffffffffffffffffffff1673ffffffffffffffffffffffffffffffffffffffff1681526020019081526020015f2054115b610bb6576040517f08c379a0000000000000000000000000000000000000000000000000000000008152600401610bad9061311a565b60405180910390fd5b5f60095f8581526020019081526020015f20905082816003019081610bdb91906132d5565b50806005015f815480929190610bf0906133a4565b919050555042816006018190555081816004015f6101000a81548173ffffffffffffffffffffffffffffffffffffffff021916908373ffffffffffffffffffffffffffffffffffffffff160217905550600a5f8581526020019081526020015f2033908060018154018082558091505060019003905f5260205f20015f9091909190916101000a81548173ffffffffffffffffffffffffffffffffffffffff021916908373ffffffffffffffffffffffffffffffffffffffff160217905550837fa724654dbe844b905ea24f78368da91d51954f17738d27d68912da129a0fd10133858460050154604051610ce7939291906133eb565b60405180910390a250505050565b610d0084848461063b565b610d14610d0b61185d565b85858585611da4565b50505050565b600a602052815f5260405f208181548110610d33575f80fd5b905f5260205f20015f915091509054906101000a900473ffffffffffffffffffffffffffffffffffffffff1681565b5f80610d6d8461093e565b90508273ffffffffffffffffffffffffffffffffffffffff168173ffffffffffffffffffffffffffffffffffffffff161480610df4575042600b5f8681526020019081526020015f205f8573ffffffffffffffffffffffffffffffffffffffff1673ffffffffffffffffffffffffffffffffffffffff1681526020019081526020015f2054115b91505092915050565b6060610e088261093e565b5060095f8381526020019081526020015f206002018054610e2890612f14565b80601f0160208091040260200160405190810160405280929190818152602001828054610e5490612f14565b8015610e9f5780601f10610e7657610100808354040283529160200191610e9f565b820191905f5260205f20905b815481529060010190602001808311610e8257829003601f168201915b50505050509050919050565b600b602052815f5260405f20602052805f5260405f205f91509150505481565b610ed36124c1565b610edc8261093e565b5060095f8381526020019081526020015f206040518060e00160405290815f82018054610f0890612f14565b80601f0160208091040260200160405190810160405280929190818152602001828054610f3490612f14565b8015610f7f5780601f10610f5657610100808354040283529160200191610f7f565b820191905f5260205f20905b815481529060010190602001808311610f6257829003601f168201915b50505050508152602001600182018054610f9890612f14565b80601f0160208091040260200160405190810160405280929190818152602001828054610fc490612f14565b801561100f5780601f10610fe65761010080835404028352916020019161100f565b820191905f5260205f20905b815481529060010190602001808311610ff257829003601f168201915b5050505050815260200160028201805461102890612f14565b80601f016020809104026020016040519081016040528092919081815260200182805461105490612f14565b801561109f5780601f106110765761010080835404028352916020019161109f565b820191905f5260205f20905b81548152906001019060200180831161108257829003601f168201915b505050505081526020016003820180546110b890612f14565b80601f01602080910402602001604051908101604052809291908181526020018280546110e490612f14565b801561112f5780601f106111065761010080835404028352916020019161112f565b820191905f5260205f20905b81548152906001019060200180831161111257829003601f168201915b50505050508152602001600482015f9054906101000a900473ffffffffffffffffffffffffffffffffffffffff1673ffffffffffffffffffffffffffffffffffffffff1673ffffffffffffffffffffffffffffffffffffffff168152602001600582015481526020016006820154815250509050919050565b5f6111b1611a81565b60085f8154809291906111c3906133a4565b91905055505f60085490506111d83382611f50565b6111e28185611f6d565b6040518060e001604052808781526020018681526020018581526020018481526020013373ffffffffffffffffffffffffffffffffffffffff168152602001600181526020014281525060095f8381526020019081526020015f205f820151815f01908161125091906132d5565b50602082015181600101908161126691906132d5565b50604082015181600201908161127c91906132d5565b50606082015181600301908161129291906132d5565b506080820151816004015f6101000a81548173ffffffffffffffffffffffffffffffffffffffff021916908373ffffffffffffffffffffffffffffffffffffffff16021790555060a0820151816005015560c08201518160060155905050807f7e301ee2338272cc788fa628742c2365ac4f690df72d4be451dc9a5886b7a9ad8733604051611322929190613427565b60405180910390a280915050949350505050565b6009602052805f5260405f205f91509050805f01805461135590612f14565b80601f016020809104026020016040519081016040528092919081815260200182805461138190612f14565b80156113cc5780601f106113a3576101008083540402835291602001916113cc565b820191905f5260205f20905b8154815290600101906020018083116113af57829003601f168201915b5050505050908060010180546113e190612f14565b80601f016020809104026020016040519081016040528092919081815260200182805461140d90612f14565b80156114585780601f1061142f57610100808354040283529160200191611458565b820191905f5260205f20905b81548152906001019060200180831161143b57829003601f168201915b50505050509080600201805461146d90612f14565b80601f016020809104026020016040519081016040528092919081815260200182805461149990612f14565b80156114e45780601f106114bb576101008083540402835291602001916114e4565b820191905f5260205f20905b8154815290600101906020018083116114c757829003601f168201915b5050505050908060030180546114f990612f14565b80601f016020809104026020016040519081016040528092919081815260200182805461152590612f14565b80156115705780601f1061154757610100808354040283529160200191611570565b820191905f5260205f20905b81548152906001019060200180831161155357829003601f168201915b505050505090806004015f9054906101000a900473ffffffffffffffffffffffffffffffffffffffff16908060050154908060060154905087565b5f60055f8473ffffffffffffffffffffffffffffffffffffffff1673ffffffffffffffffffffffffffffffffffffffff1681526020019081526020015f205f8373ffffffffffffffffffffffffffffffffffffffff1673ffffffffffffffffffffffffffffffffffffffff1681526020019081526020015f205f9054906101000a900460ff16905092915050565b611641611a81565b5f73ffffffffffffffffffffffffffffffffffffffff168173ffffffffffffffffffffffffffffffffffffffff16036116b1575f6040517f1e4fbdf70000000000000000000000000000000000000000000000000000000081526004016116a8919061271c565b60405180910390fd5b6116ba81611b08565b50565b5f7f80ac58cd000000000000000000000000000000000000000000000000000000007bffffffffffffffffffffffffffffffffffffffffffffffffffffffff1916827bffffffffffffffffffffffffffffffffffffffffffffffffffffffff1916148061178757507f5b5e139f000000000000000000000000000000000000000000000000000000007bffffffffffffffffffffffffffffffffffffffffffffffffffffffff1916827bffffffffffffffffffffffffffffffffffffffffffffffffffffffff1916145b80611797575061179682611fc7565b5b9050919050565b5f806117a983612030565b90505f73ffffffffffffffffffffffffffffffffffffffff168173ffffffffffffffffffffffffffffffffffffffff160361181b57826040517f7e27328900000000000000000000000000000000000000000000000000000000815260040161181291906128b5565b60405180910390fd5b80915050919050565b5f60045f8381526020019081526020015f205f9054906101000a900473ffffffffffffffffffffffffffffffffffffffff169050919050565b5f33905090565b6118718383836001612069565b505050565b5f8061188184612030565b90505f73ffffffffffffffffffffffffffffffffffffffff168373ffffffffffffffffffffffffffffffffffffffff16146118c2576118c1818486612228565b5b5f73ffffffffffffffffffffffffffffffffffffffff168173ffffffffffffffffffffffffffffffffffffffff161461194d576119015f855f80612069565b600160035f8373ffffffffffffffffffffffffffffffffffffffff1673ffffffffffffffffffffffffffffffffffffffff1681526020019081526020015f205f82825403925050819055505b5f73ffffffffffffffffffffffffffffffffffffffff168573ffffffffffffffffffffffffffffffffffffffff16146119cc57600160035f8773ffffffffffffffffffffffffffffffffffffffff1673ffffffffffffffffffffffffffffffffffffffff1681526020019081526020015f205f82825401925050819055505b8460025f8681526020019081526020015f205f6101000a81548173ffffffffffffffffffffffffffffffffffffffff021916908373ffffffffffffffffffffffffffffffffffffffff160217905550838573ffffffffffffffffffffffffffffffffffffffff168273ffffffffffffffffffffffffffffffffffffffff167fddf252ad1be2c89b69c2b068fc378daa952ba7f163c4a11628f55a4df523b3ef60405160405180910390a4809150509392505050565b611a8961185d565b73ffffffffffffffffffffffffffffffffffffffff16611aa7610a18565b73ffffffffffffffffffffffffffffffffffffffff1614611b0657611aca61185d565b6040517f118cdaa7000000000000000000000000000000000000000000000000000000008152600401611afd919061271c565b60405180910390fd5b565b5f60075f9054906101000a900473ffffffffffffffffffffffffffffffffffffffff1690508160075f6101000a81548173ffffffffffffffffffffffffffffffffffffffff021916908373ffffffffffffffffffffffffffffffffffffffff1602179055508173ffffffffffffffffffffffffffffffffffffffff168173ffffffffffffffffffffffffffffffffffffffff167f8be0079c531659141344cd1fd0a4f28419497f9722a3daafe3b4186f6b6457e060405160405180910390a35050565b5f73ffffffffffffffffffffffffffffffffffffffff168373ffffffffffffffffffffffffffffffffffffffff1603611c3b575f6040517fa9fbf51f000000000000000000000000000000000000000000000000000000008152600401611c32919061271c565b60405180910390fd5b5f73ffffffffffffffffffffffffffffffffffffffff168273ffffffffffffffffffffffffffffffffffffffff1603611cab57816040517f5b08ba18000000000000000000000000000000000000000000000000000000008152600401611ca2919061271c565b60405180910390fd5b8060055f8573ffffffffffffffffffffffffffffffffffffffff1673ffffffffffffffffffffffffffffffffffffffff1681526020019081526020015f205f8473ffffffffffffffffffffffffffffffffffffffff1673ffffffffffffffffffffffffffffffffffffffff1681526020019081526020015f205f6101000a81548160ff0219169083151502179055508173ffffffffffffffffffffffffffffffffffffffff168373ffffffffffffffffffffffffffffffffffffffff167f17307eab39ab6107e8899845ad3d59bd9653f200f220920489ca2b5937696c3183604051611d9791906125bc565b60405180910390a3505050565b5f8373ffffffffffffffffffffffffffffffffffffffff163b1115611f49578273ffffffffffffffffffffffffffffffffffffffff1663150b7a02868685856040518563ffffffff1660e01b8152600401611e0294939291906134a7565b6020604051808303815f875af1925050508015611e3d57506040513d601f19601f82011682018060405250810190611e3a9190613505565b60015b611ebe573d805f8114611e6b576040519150601f19603f3d011682016040523d82523d5f602084013e611e70565b606091505b505f815103611eb657836040517f64a0ae92000000000000000000000000000000000000000000000000000000008152600401611ead919061271c565b60405180910390fd5b805160208201fd5b63150b7a0260e01b7bffffffffffffffffffffffffffffffffffffffffffffffffffffffff1916817bffffffffffffffffffffffffffffffffffffffffffffffffffffffff191614611f4757836040517f64a0ae92000000000000000000000000000000000000000000000000000000008152600401611f3e919061271c565b60405180910390fd5b505b5050505050565b611f69828260405180602001604052805f8152506122eb565b5050565b8060065f8481526020019081526020015f209081611f8b91906132d5565b507ff8e1a15aba9398e019f0b49df1a4fde98ee17ae345cb5f6b5e2c27f5033e8ce782604051611fbb91906128b5565b60405180910390a15050565b5f7f01ffc9a7000000000000000000000000000000000000000000000000000000007bffffffffffffffffffffffffffffffffffffffffffffffffffffffff1916827bffffffffffffffffffffffffffffffffffffffffffffffffffffffff1916149050919050565b5f60025f8381526020019081526020015f205f9054906101000a900473ffffffffffffffffffffffffffffffffffffffff169050919050565b80806120a157505f73ffffffffffffffffffffffffffffffffffffffff168273ffffffffffffffffffffffffffffffffffffffff1614155b156121d3575f6120b08461179e565b90505f73ffffffffffffffffffffffffffffffffffffffff168373ffffffffffffffffffffffffffffffffffffffff161415801561211a57508273ffffffffffffffffffffffffffffffffffffffff168173ffffffffffffffffffffffffffffffffffffffff1614155b801561212d575061212b81846115ab565b155b1561216f57826040517fa9fbf51f000000000000000000000000000000000000000000000000000000008152600401612166919061271c565b60405180910390fd5b81156121d157838573ffffffffffffffffffffffffffffffffffffffff168273ffffffffffffffffffffffffffffffffffffffff167f8c5be1e5ebec7d5bd14f71427d1e84f3dd0314c0f7b2291e5b200ac8c7c3b92560405160405180910390a45b505b8360045f8581526020019081526020015f205f6101000a81548173ffffffffffffffffffffffffffffffffffffffff021916908373ffffffffffffffffffffffffffffffffffffffff16021790555050505050565b61223383838361230e565b6122e6575f73ffffffffffffffffffffffffffffffffffffffff168373ffffffffffffffffffffffffffffffffffffffff16036122a757806040517f7e27328900000000000000000000000000000000000000000000000000000000815260040161229e91906128b5565b60405180910390fd5b81816040517f177e802f0000000000000000000000000000000000000000000000000000000081526004016122dd929190613041565b60405180910390fd5b505050565b6122f583836123ce565b61230961230061185d565b5f858585611da4565b505050565b5f8073ffffffffffffffffffffffffffffffffffffffff168373ffffffffffffffffffffffffffffffffffffffff16141580156123c557508273ffffffffffffffffffffffffffffffffffffffff168473ffffffffffffffffffffffffffffffffffffffff161480612386575061238584846115ab565b5b806123c457508273ffffffffffffffffffffffffffffffffffffffff166123ac83611824565b73ffffffffffffffffffffffffffffffffffffffff16145b5b90509392505050565b5f73ffffffffffffffffffffffffffffffffffffffff168273ffffffffffffffffffffffffffffffffffffffff160361243e575f6040517f64a0ae92000000000000000000000000000000000000000000000000000000008152600401612435919061271c565b60405180910390fd5b5f61244a83835f611876565b90505f73ffffffffffffffffffffffffffffffffffffffff168173ffffffffffffffffffffffffffffffffffffffff16146124bc575f6040517f73c6ac6e0000000000000000000000000000000000000000000000000000000081526004016124b3919061271c565b60405180910390fd5b505050565b6040518060e00160405280606081526020016060815260200160608152602001606081526020015f73ffffffffffffffffffffffffffffffffffffffff1681526020015f81526020015f81525090565b5f604051905090565b5f80fd5b5f80fd5b5f7fffffffff0000000000000000000000000000000000000000000000000000000082169050919050565b61255681612522565b8114612560575f80fd5b50565b5f813590506125718161254d565b92915050565b5f6020828403121561258c5761258b61251a565b5b5f61259984828501612563565b91505092915050565b5f8115159050919050565b6125b6816125a2565b82525050565b5f6020820190506125cf5f8301846125ad565b92915050565b5f81519050919050565b5f82825260208201905092915050565b5f5b8381101561260c5780820151818401526020810190506125f1565b5f8484015250505050565b5f601f19601f8301169050919050565b5f612631826125d5565b61263b81856125df565b935061264b8185602086016125ef565b61265481612617565b840191505092915050565b5f6020820190508181035f8301526126778184612627565b905092915050565b5f819050919050565b6126918161267f565b811461269b575f80fd5b50565b5f813590506126ac81612688565b92915050565b5f602082840312156126c7576126c661251a565b5b5f6126d48482850161269e565b91505092915050565b5f73ffffffffffffffffffffffffffffffffffffffff82169050919050565b5f612706826126dd565b9050919050565b612716816126fc565b82525050565b5f60208201905061272f5f83018461270d565b92915050565b61273e816126fc565b8114612748575f80fd5b50565b5f8135905061275981612735565b92915050565b5f80604083850312156127755761277461251a565b5b5f6127828582860161274b565b92505060206127938582860161269e565b9150509250929050565b5f805f606084860312156127b4576127b361251a565b5b5f6127c18682870161274b565b93505060206127d28682870161274b565b92505060406127e38682870161269e565b9150509250925092565b5f805f606084860312156128045761280361251a565b5b5f6128118682870161269e565b93505060206128228682870161274b565b92505060406128338682870161269e565b9150509250925092565b5f80604083850312156128535761285261251a565b5b5f6128608582860161269e565b92505060206128718582860161274b565b9150509250929050565b5f602082840312156128905761288f61251a565b5b5f61289d8482850161274b565b91505092915050565b6128af8161267f565b82525050565b5f6020820190506128c85f8301846128a6565b92915050565b6128d7816125a2565b81146128e1575f80fd5b50565b5f813590506128f2816128ce565b92915050565b5f806040838503121561290e5761290d61251a565b5b5f61291b8582860161274b565b925050602061292c858286016128e4565b9150509250929050565b5f80fd5b5f80fd5b7f4e487b71000000000000000000000000000000000000000000000000000000005f52604160045260245ffd5b61297482612617565b810181811067ffffffffffffffff821117156129935761299261293e565b5b80604052505050565b5f6129a5612511565b90506129b1828261296b565b919050565b5f67ffffffffffffffff8211156129d0576129cf61293e565b5b6129d982612617565b9050602081019050919050565b828183375f83830152505050565b5f612a06612a01846129b6565b61299c565b905082815260208101848484011115612a2257612a2161293a565b5b612a2d8482856129e6565b509392505050565b5f82601f830112612a4957612a48612936565b5b8135612a598482602086016129f4565b91505092915050565b5f8060408385031215612a7857612a7761251a565b5b5f612a858582860161269e565b925050602083013567ffffffffffffffff811115612aa657612aa561251e565b5b612ab285828601612a35565b9150509250929050565b5f67ffffffffffffffff821115612ad657612ad561293e565b5b612adf82612617565b9050602081019050919050565b5f612afe612af984612abc565b61299c565b905082815260208101848484011115612b1a57612b1961293a565b5b612b258482856129e6565b509392505050565b5f82601f830112612b4157612b40612936565b5b8135612b51848260208601612aec565b91505092915050565b5f805f8060808587031215612b7257612b7161251a565b5b5f612b7f8782880161274b565b9450506020612b908782880161274b565b9350506040612ba18782880161269e565b925050606085013567ffffffffffffffff811115612bc257612bc161251e565b5b612bce87828801612b2d565b91505092959194509250565b5f8060408385031215612bf057612bef61251a565b5b5f612bfd8582860161269e565b9250506020612c0e8582860161269e565b9150509250929050565b5f82825260208201905092915050565b5f612c32826125d5565b612c3c8185612c18565b9350612c4c8185602086016125ef565b612c5581612617565b840191505092915050565b612c69816126fc565b82525050565b612c788161267f565b82525050565b5f60e083015f8301518482035f860152612c988282612c28565b91505060208301518482036020860152612cb28282612c28565b91505060408301518482036040860152612ccc8282612c28565b91505060608301518482036060860152612ce68282612c28565b9150506080830151612cfb6080860182612c60565b5060a0830151612d0e60a0860182612c6f565b5060c0830151612d2160c0860182612c6f565b508091505092915050565b5f6020820190508181035f830152612d448184612c7e565b905092915050565b5f805f8060808587031215612d6457612d6361251a565b5b5f85013567ffffffffffffffff811115612d8157612d8061251e565b5b612d8d87828801612a35565b945050602085013567ffffffffffffffff811115612dae57612dad61251e565b5b612dba87828801612a35565b935050604085013567ffffffffffffffff811115612ddb57612dda61251e565b5b612de787828801612a35565b925050606085013567ffffffffffffffff811115612e0857612e0761251e565b5b612e1487828801612a35565b91505092959194509250565b5f60e0820190508181035f830152612e38818a612627565b90508181036020830152612e4c8189612627565b90508181036040830152612e608188612627565b90508181036060830152612e748187612627565b9050612e83608083018661270d565b612e9060a08301856128a6565b612e9d60c08301846128a6565b98975050505050505050565b5f8060408385031215612ebf57612ebe61251a565b5b5f612ecc8582860161274b565b9250506020612edd8582860161274b565b9150509250929050565b7f4e487b71000000000000000000000000000000000000000000000000000000005f52602260045260245ffd5b5f6002820490506001821680612f2b57607f821691505b602082108103612f3e57612f3d612ee7565b5b50919050565b5f606082019050612f575f83018661270d565b612f6460208301856128a6565b612f71604083018461270d565b949350505050565b7f4f6e6c79206f776e65722063616e2073686172650000000000000000000000005f82015250565b5f612fad6014836125df565b9150612fb882612f79565b602082019050919050565b5f6020820190508181035f830152612fda81612fa1565b9050919050565b7f4e487b71000000000000000000000000000000000000000000000000000000005f52601160045260245ffd5b5f6130188261267f565b91506130238361267f565b925082820190508082111561303b5761303a612fe1565b5b92915050565b5f6040820190506130545f83018561270d565b61306160208301846128a6565b9392505050565b7f4f6e6c79206f776e65722063616e207265766f6b6500000000000000000000005f82015250565b5f61309c6015836125df565b91506130a782613068565b602082019050919050565b5f6020820190508181035f8301526130c981613090565b9050919050565b7f4e6f207065726d697373696f6e20746f20747261696e000000000000000000005f82015250565b5f6131046016836125df565b915061310f826130d0565b602082019050919050565b5f6020820190508181035f830152613131816130f8565b9050919050565b5f819050815f5260205f209050919050565b5f6020601f8301049050919050565b5f82821b905092915050565b5f600883026131947fffffffffffffffffffffffffffffffffffffffffffffffffffffffffffffffff82613159565b61319e8683613159565b95508019841693508086168417925050509392505050565b5f819050919050565b5f6131d96131d46131cf8461267f565b6131b6565b61267f565b9050919050565b5f819050919050565b6131f2836131bf565b6132066131fe826131e0565b848454613165565b825550505050565b5f90565b61321a61320e565b6132258184846131e9565b505050565b5b818110156132485761323d5f82613212565b60018101905061322b565b5050565b601f82111561328d5761325e81613138565b6132678461314a565b81016020851015613276578190505b61328a6132828561314a565b83018261322a565b50505b505050565b5f82821c905092915050565b5f6132ad5f1984600802613292565b1980831691505092915050565b5f6132c5838361329e565b9150826002028217905092915050565b6132de826125d5565b67ffffffffffffffff8111156132f7576132f661293e565b5b6133018254612f14565b61330c82828561324c565b5f60209050601f83116001811461333d575f841561332b578287015190505b61333585826132ba565b86555061339c565b601f19841661334b86613138565b5f5b828110156133725784890151825560018201915060208501945060208101905061334d565b8683101561338f578489015161338b601f89168261329e565b8355505b6001600288020188555050505b505050505050565b5f6133ae8261267f565b91507fffffffffffffffffffffffffffffffffffffffffffffffffffffffffffffffff82036133e0576133df612fe1565b5b600182019050919050565b5f6060820190506133fe5f83018661270d565b81810360208301526134108185612627565b905061341f60408301846128a6565b949350505050565b5f6040820190508181035f83015261343f8185612627565b905061344e602083018461270d565b9392505050565b5f81519050919050565b5f82825260208201905092915050565b5f61347982613455565b613483818561345f565b93506134938185602086016125ef565b61349c81612617565b840191505092915050565b5f6080820190506134ba5f83018761270d565b6134c7602083018661270d565b6134d460408301856128a6565b81810360608301526134e6818461346f565b905095945050505050565b5f815190506134ff8161254d565b92915050565b5f6020828403121561351a5761351961251a565b5b5f613527848285016134f1565b9150509291505056fea2646970667358221220a4b6c7894f6bde42cddda2aeef1b07701acffd7b92be8439eff682371790580c64736f6c63430008180033","linkReferences":{}},"methodIdentifiers":{"agentes(uint256)":"df01882a","approve(address,uint256)":"095ea7b3","balanceOf(address)":"70a08231","compartilharAgente(uint256,address,uint256)":"324b5315","criarAgente(string,string,string,string)":"d2539d15","getApproved(uint256)":"081812fc","getInfoAgente(uint256)":"cd5a7a65","historicoTreinadores(uint256,uint256)":"c2c047b3","isApprovedForAll(address,address)":"e985e9c5","name()":"06fdde03","owner()":"8da5cb5b","ownerOf(uint256)":"6352211e","permissoesCompartilhamento(uint256,address)":"cb6af1b8","podeUsarAgente(uint256,address)":"c3f27ca5","renounceOwnership()":"715018a6","revogarCompartilhamento(uint256,address)":"492fe59e","safeTransferFrom(address,address,uint256)":"42842e0e","safeTransferFrom(address,address,uint256,bytes)":"b88d4fde","setApprovalForAll(address,bool)":"a22cb465","supportsInterface(bytes4)":"01ffc9a7","symbol()":"95d89b41","tokenURI(uint256)":"c87b56dd","transferFrom(address,address,uint256)":"23b872dd","transferOwnership(address)":"f2fde38b","treinarAgente(uint256,string)":"a7648333"},"id":37}